:100000000C9434000C9446000C9446000C9446006A
:100010000C9451010C9446000C9446000C9446003C
:100020000C9446000C9446000C9446000C94460038
:100030000C9446000C9446000C9446000C94460028
:100040000C9446000C9421010C9470000C94460012
:100050000C9446000C9446000C9446000C94460008
:100060000C9446000C94460011241FBECFEFD4E040
:10007000DEBFCDBF12E0A0E0B1E001C01D92A93FFC
:10008000B107E1F70E9460010C9428020C94000073
:10009000219A229823982598249A80EC8CBD8DB5BE
:1000A0008EB508958EBD0DB407FEFDCF08950DB435
:1000B00007FEFDCF8EB508958DB58EB5089581E00C
:1000C0008093C50080EA8093C400E1ECF0E0808179
:1000D00088698083E2ECF0E0808186608083089507
:1000E0001F920F920FB60F9211242F933F938F936D
:1000F0009F93EF93FF938091C600809300015E98D9
:10010000419880E49FE10197F1F7809100018EBD55
:100110000DB407FEFDCF88E893E120E931E0F90155
:100120003197F1F70197D9F7419A5E9AFF91EF91D4
:100130009F918F913F912F910F900FBE0F901F9025
:100140001895982F8091C00085FFFCCF9093C60032
:1001500080E00895FC0107C08091C00085FFFCCFBE
:1001600031969093C60090819923B1F708950F932B
:100170001F93CF93DF938C01E0E1F7E240E0C0E012
:10018000D0E0C801BF010E941402262F662329F483
:10019000442319F4E130F10549F48091C00085FF52
:1001A000FCCF205D2093C600205341E0CF016AE0E0
:1001B00070E00E9414022196C530D10571F0822FA3
:1001C00090E09C012E9FC0012F9F900D3E9F900DAF
:1001D0001124081B190BFB01D4CFDF91CF911F9184
:1001E0000F910895399A3C9A3D983898299A089524
:1001F000449A41981D99FECF299883E18EBD0DB494
:1002000007FEFDCF82EB8EBD0DB407FEFDCF82E36E
:100210008EBD0DB407FEFDCF299A08954198299807
:100220008EBD0DB407FEFDCF299A419A08958AB17B
:10023000806C8AB982E08093680080E280936C00D1
:1002400008951F920F920FB60F9211242F938F9340
:100250009F93EF93FF93E0910101F09102018EB51E
:10026000EB5FFE4F80838091010190910201019626
:10027000909302018093010180910101909102010C
:10028000845F914020F01092020110920101FF91D1
:10029000EF919F918F912F910F900FBE0F901F9014
:1002A00018951F920F920FB60F921124359902C024
:1002B000299801C0299A0F900FBE0F901F90189592
:1002C000DF93CF9300D000D0CDB7DEB719828AB1CB
:1002D000806C8AB982E08093680080E280936C0031
:1002E0000E9448000E945F000E94F2000E94F800F5
:1002F000449880EA9FE00197F1F7449A419A1D994A
:10030000FECF29980DB407FEFDCF8EB50DB407FEC4
:10031000FDCF8EB50DB407FEFDCF8EB5299A80EACC
:100320009FE00197F1F74498419A5E9A5F9A78941A
:1003300050E060E040E0DE01129620910101309132
:100340000201809103019091040128173907A9F354
:100350004423A1F4E0910301F0910401EB5FFE4F0F
:10036000E08101C0E6958E2F90E0807F90704197EC
:10037000CCF75E2F5295507F41E040C0E0910301E1
:10038000F0910401EB5FFE4F208101C02695822F82
:1003900090E0807F90704197CCF72F70252B89815A
:1003A000FD01E80FF11D208389818F5F8983898199
:1003B000833010F450E021C019829A818B81981704
:1003C00061F09B818C81981711F49B8107C09A8101
:1003D0008C81981711F095E401C09A818091C0003A
:1003E00085FFFCCF9093C600662321F45E9A50E00F
:1003F00061E003C05E9850E060E040E0809103015E
:1004000090910401019690930401809303018091DF
:10041000030190910401845F914008F48ECF109203
:1004200004011092030189CFAA1BBB1B51E107C035
:10043000AA1FBB1FA617B70710F0A61BB70B881F74
:10044000991F5A95A9F780959095BC01CD01089503
:04045000F894FFCF4E
:00000001FF
