:100000000C9434000C9446000C9446000C9446006A
:100010000C9446000C9446000C9446000C94460048
:100020000C9446000C9446000C9446000C94460038
:100030000C9446000C9446000C9446000C94460028
:100040000C9446000C9446000C9470000C944600EE
:100050000C9446000C9446000C9446000C94460008
:100060000C9446000C94460011241FBECFEFD4E040
:10007000DEBFCDBF12E0A0E0B1E001C01D92A93FFC
:10008000B107E1F70E943D010C94B0010C9400000F
:10009000219A229823982598249A80E48CBD299A45
:1000A00008958EBD0DB407FEFDCF1EBC08950DB49E
:1000B00007FEFDCF8EB508958DB58EB5089581E00C
:1000C0008093C50080EA8093C400E1ECF0E0808179
:1000D00088698083E2ECF0E0808186608083089507
:1000E0001F920F920FB60F9211242F938F939F930D
:1000F000EF93FF93E0910001F09101018091C60020
:10010000EB5FFE4F80838091000190910101019689
:100110009093010180930001809100019091010171
:10012000845F914020F01092010110920001FF9134
:10013000EF919F918F912F910F900FBE0F901F9075
:100140001895982F8091C00085FFFCCF9093C60032
:1001500080E00895FC0107C08091C00085FFFCCFBE
:1001600031969093C60090819923B1F708950F932B
:100170001F93CF93DF938C01E0E1F7E240E0C0E012
:10018000D0E0C801BF010E949C01262F662329F4FC
:10019000442319F4E130F10549F48091C00085FF52
:1001A000FCCF205D2093C600205341E0CF016AE0E0
:1001B00070E00E949C012196C530D10571F0822F1C
:1001C00090E09C012E9FC0012F9F900D3E9F900DAF
:1001D0001124081B190BFB01D4CFDF91CF911F9184
:1001E0000F910895399A3C9A3D983898299A089524
:1001F000449A41981D99FECF299883E18EBD0DB494
:1002000007FEFDCF1EBC82EB8EBD0DB407FEFDCFF9
:100210001EBC82E38EBD0DB407FEFDCF1EBC299A25
:100220000895419829988EBD0DB407FEFDCF1EBCE0
:10023000299A419A08950F931F93182F082F02951A
:100240000F7000611F701061802F0E941101812FBB
:100250000E941101802F0E941101812F0E94110123
:10026000802F0E941101812F0E9411011F910F9177
:1002700008958AB1806C8AB908951F938AB1806C01
:100280008AB90E9448000E945F000E94F2000E940A
:10029000F800449880EA9FE00197F1F7449A419A68
:1002A0001D99FECF29980DB407FEFDCF8EB50DB474
:1002B00007FEFDCF8EB50DB407FEFDCF8EB5299A92
:1002C00080EA9FE00197F1F74498419A5E9A5F9A1D
:1002D000789410E0359BFECF209100013091010110
:1002E00080910201909103012817390799F3E09159
:1002F0000201F0910301EB5FFE4F80810E941B0120
:10030000112319F45E9A11E002C05E9810E080910A
:1003100002019091030101969093030180930201E1
:100320008091020190910301845F914098F21092B4
:10033000030110920201CECFAA1BBB1B51E107C0E3
:10034000AA1FBB1FA617B70710F0A61BB70B881F65
:10035000991F5A95A9F780959095BC01CD010895F4
:04036000F894FFCF3F
:00000001FF
